{
  "contractName": "MinimalERC721",
  "abi": [
    {
      "inputs": [],
      "stateMutability": "nonpayable",
      "type": "constructor"
    },
    {
      "anonymous": false,
      "inputs": [
        {
          "indexed": true,
          "internalType": "address",
          "name": "owner",
          "type": "address"
        },
        {
          "indexed": true,
          "internalType": "address",
          "name": "approved",
          "type": "address"
        },
        {
          "indexed": true,
          "internalType": "uint256",
          "name": "tokenId",
          "type": "uint256"
        }
      ],
      "name": "Approval",
      "type": "event"
    },
    {
      "anonymous": false,
      "inputs": [
        {
          "indexed": true,
          "internalType": "address",
          "name": "owner",
          "type": "address"
        },
        {
          "indexed": true,
          "internalType": "address",
          "name": "operator",
          "type": "address"
        },
        {
          "indexed": false,
          "internalType": "bool",
          "name": "approved",
          "type": "bool"
        }
      ],
      "name": "ApprovalForAll",
      "type": "event"
    },
    {
      "anonymous": false,
      "inputs": [
        {
          "indexed": true,
          "internalType": "address",
          "name": "previousOwner",
          "type": "address"
        },
        {
          "indexed": true,
          "internalType": "address",
          "name": "newOwner",
          "type": "address"
        }
      ],
      "name": "OwnershipTransferred",
      "type": "event"
    },
    {
      "anonymous": false,
      "inputs": [
        {
          "indexed": false,
          "internalType": "uint256",
          "name": "tokenId",
          "type": "uint256"
        },
        {
          "components": [
            {
              "internalType": "address payable",
              "name": "account",
              "type": "address"
            },
            {
              "internalType": "uint96",
              "name": "value",
              "type": "uint96"
            }
          ],
          "indexed": false,
          "internalType": "struct LibPart.Part[]",
          "name": "royalties",
          "type": "tuple[]"
        }
      ],
      "name": "RoyaltiesSet",
      "type": "event"
    },
    {
      "anonymous": false,
      "inputs": [
        {
          "indexed": true,
          "internalType": "address",
          "name": "from",
          "type": "address"
        },
        {
          "indexed": true,
          "internalType": "address",
          "name": "to",
          "type": "address"
        },
        {
          "indexed": true,
          "internalType": "uint256",
          "name": "tokenId",
          "type": "uint256"
        }
      ],
      "name": "Transfer",
      "type": "event"
    },
    {
      "inputs": [
        {
          "internalType": "address",
          "name": "to",
          "type": "address"
        },
        {
          "internalType": "uint256",
          "name": "tokenId",
          "type": "uint256"
        }
      ],
      "name": "approve",
      "outputs": [],
      "stateMutability": "nonpayable",
      "type": "function"
    },
    {
      "inputs": [
        {
          "internalType": "address",
          "name": "owner",
          "type": "address"
        }
      ],
      "name": "balanceOf",
      "outputs": [
        {
          "internalType": "uint256",
          "name": "",
          "type": "uint256"
        }
      ],
      "stateMutability": "view",
      "type": "function",
      "constant": true
    },
    {
      "inputs": [
        {
          "internalType": "uint256",
          "name": "tokenId",
          "type": "uint256"
        }
      ],
      "name": "getApproved",
      "outputs": [
        {
          "internalType": "address",
          "name": "",
          "type": "address"
        }
      ],
      "stateMutability": "view",
      "type": "function",
      "constant": true
    },
    {
      "inputs": [
        {
          "internalType": "uint256",
          "name": "id",
          "type": "uint256"
        }
      ],
      "name": "getRaribleV2Royalties",
      "outputs": [
        {
          "components": [
            {
              "internalType": "address payable",
              "name": "account",
              "type": "address"
            },
            {
              "internalType": "uint96",
              "name": "value",
              "type": "uint96"
            }
          ],
          "internalType": "struct LibPart.Part[]",
          "name": "",
          "type": "tuple[]"
        }
      ],
      "stateMutability": "view",
      "type": "function",
      "constant": true
    },
    {
      "inputs": [
        {
          "internalType": "address",
          "name": "owner",
          "type": "address"
        },
        {
          "internalType": "address",
          "name": "operator",
          "type": "address"
        }
      ],
      "name": "isApprovedForAll",
      "outputs": [
        {
          "internalType": "bool",
          "name": "",
          "type": "bool"
        }
      ],
      "stateMutability": "view",
      "type": "function",
      "constant": true
    },
    {
      "inputs": [],
      "name": "name",
      "outputs": [
        {
          "internalType": "string",
          "name": "",
          "type": "string"
        }
      ],
      "stateMutability": "view",
      "type": "function",
      "constant": true
    },
    {
      "inputs": [],
      "name": "owner",
      "outputs": [
        {
          "internalType": "address",
          "name": "",
          "type": "address"
        }
      ],
      "stateMutability": "view",
      "type": "function",
      "constant": true
    },
    {
      "inputs": [
        {
          "internalType": "uint256",
          "name": "tokenId",
          "type": "uint256"
        }
      ],
      "name": "ownerOf",
      "outputs": [
        {
          "internalType": "address",
          "name": "",
          "type": "address"
        }
      ],
      "stateMutability": "view",
      "type": "function",
      "constant": true
    },
    {
      "inputs": [],
      "name": "renounceOwnership",
      "outputs": [],
      "stateMutability": "nonpayable",
      "type": "function"
    },
    {
      "inputs": [
        {
          "internalType": "uint256",
          "name": "",
          "type": "uint256"
        },
        {
          "internalType": "uint256",
          "name": "",
          "type": "uint256"
        }
      ],
      "name": "royalties",
      "outputs": [
        {
          "internalType": "address payable",
          "name": "account",
          "type": "address"
        },
        {
          "internalType": "uint96",
          "name": "value",
          "type": "uint96"
        }
      ],
      "stateMutability": "view",
      "type": "function",
      "constant": true
    },
    {
      "inputs": [
        {
          "internalType": "address",
          "name": "from",
          "type": "address"
        },
        {
          "internalType": "address",
          "name": "to",
          "type": "address"
        },
        {
          "internalType": "uint256",
          "name": "tokenId",
          "type": "uint256"
        }
      ],
      "name": "safeTransferFrom",
      "outputs": [],
      "stateMutability": "nonpayable",
      "type": "function"
    },
    {
      "inputs": [
        {
          "internalType": "address",
          "name": "from",
          "type": "address"
        },
        {
          "internalType": "address",
          "name": "to",
          "type": "address"
        },
        {
          "internalType": "uint256",
          "name": "tokenId",
          "type": "uint256"
        },
        {
          "internalType": "bytes",
          "name": "_data",
          "type": "bytes"
        }
      ],
      "name": "safeTransferFrom",
      "outputs": [],
      "stateMutability": "nonpayable",
      "type": "function"
    },
    {
      "inputs": [
        {
          "internalType": "address",
          "name": "operator",
          "type": "address"
        },
        {
          "internalType": "bool",
          "name": "approved",
          "type": "bool"
        }
      ],
      "name": "setApprovalForAll",
      "outputs": [],
      "stateMutability": "nonpayable",
      "type": "function"
    },
    {
      "inputs": [],
      "name": "symbol",
      "outputs": [
        {
          "internalType": "string",
          "name": "",
          "type": "string"
        }
      ],
      "stateMutability": "view",
      "type": "function",
      "constant": true
    },
    {
      "inputs": [
        {
          "internalType": "uint256",
          "name": "tokenId",
          "type": "uint256"
        }
      ],
      "name": "tokenURI",
      "outputs": [
        {
          "internalType": "string",
          "name": "",
          "type": "string"
        }
      ],
      "stateMutability": "view",
      "type": "function",
      "constant": true
    },
    {
      "inputs": [
        {
          "internalType": "address",
          "name": "from",
          "type": "address"
        },
        {
          "internalType": "address",
          "name": "to",
          "type": "address"
        },
        {
          "internalType": "uint256",
          "name": "tokenId",
          "type": "uint256"
        }
      ],
      "name": "transferFrom",
      "outputs": [],
      "stateMutability": "nonpayable",
      "type": "function"
    },
    {
      "inputs": [
        {
          "internalType": "address",
          "name": "newOwner",
          "type": "address"
        }
      ],
      "name": "transferOwnership",
      "outputs": [],
      "stateMutability": "nonpayable",
      "type": "function"
    },
    {
      "inputs": [
        {
          "internalType": "address",
          "name": "_to",
          "type": "address"
        }
      ],
      "name": "mint",
      "outputs": [],
      "stateMutability": "nonpayable",
      "type": "function"
    },
    {
      "inputs": [
        {
          "internalType": "uint256",
          "name": "_tokenId",
          "type": "uint256"
        },
        {
          "internalType": "address payable",
          "name": "_royaltiesReceipientAddress",
          "type": "address"
        },
        {
          "internalType": "uint96",
          "name": "_percentageBasisPoints",
          "type": "uint96"
        }
      ],
      "name": "setRoyalties",
      "outputs": [],
      "stateMutability": "nonpayable",
      "type": "function"
    },
    {
      "inputs": [
        {
          "internalType": "uint256",
          "name": "_tokenId",
          "type": "uint256"
        },
        {
          "internalType": "uint256",
          "name": "_salePrice",
          "type": "uint256"
        }
      ],
      "name": "royaltyInfo",
      "outputs": [
        {
          "internalType": "address",
          "name": "receiver",
          "type": "address"
        },
        {
          "internalType": "uint256",
          "name": "royaltyAmount",
          "type": "uint256"
        }
      ],
      "stateMutability": "view",
      "type": "function",
      "constant": true
    },
    {
      "inputs": [
        {
          "internalType": "bytes4",
          "name": "interfaceId",
          "type": "bytes4"
        }
      ],
      "name": "supportsInterface",
      "outputs": [
        {
          "internalType": "bool",
          "name": "",
          "type": "bool"
        }
      ],
      "stateMutability": "view",
      "type": "function",
      "constant": true
    }
  ],
  "bytecode": "0x60806040523480156200001157600080fd5b506040805180820182526007815266135a5b9a5b585b60ca1b60208083019182528351808501909452600384526226a4a760e91b9084015281519192916200005c91600091620000eb565b50805162000072906001906020840190620000eb565b5050506200008f620000896200009560201b60201c565b62000099565b620001ce565b3390565b600680546001600160a01b038381166001600160a01b0319831681179093556040519116919082907f8be0079c531659141344cd1fd0a4f28419497f9722a3daafe3b4186f6b6457e090600090a35050565b828054620000f99062000191565b90600052602060002090601f0160209004810192826200011d576000855562000168565b82601f106200013857805160ff191683800117855562000168565b8280016001018555821562000168579182015b82811115620001685782518255916020019190600101906200014b565b50620001769291506200017a565b5090565b5b808211156200017657600081556001016200017b565b600181811c90821680620001a657607f821691505b60208210811415620001c857634e487b7160e01b600052602260045260246000fd5b50919050565b611cb880620001de6000396000f3fe608060405234801561001057600080fd5b50600436106101375760003560e01c806370a08231116100b8578063a22cb4651161007c578063a22cb465146102c6578063b88d4fde146102d9578063c87b56dd146102ec578063cad96cca146102ff578063e985e9c51461031f578063f2fde38b1461035b57600080fd5b806370a082311461024a578063715018a61461026b5780638924af74146102735780638da5cb5b146102ad57806395d89b41146102be57600080fd5b806323b872dd116100ff57806323b872dd146101cc5780632a55205a146101df57806342842e0e146102115780636352211e146102245780636a6278421461023757600080fd5b806301ffc9a71461013c57806306fdde0314610164578063081812fc14610179578063095ea7b3146101a4578063143094db146101b9575b600080fd5b61014f61014a36600461185a565b61036e565b60405190151581526020015b60405180910390f35b61016c6103c1565b60405161015b9190611a19565b61018c610187366004611892565b610453565b6040516001600160a01b03909116815260200161015b565b6101b76101b236600461182f565b6104ed565b005b6101b76101c73660046118aa565b610603565b6101b76101da3660046116e5565b6106fd565b6101f26101ed3660046118f6565b61072e565b604080516001600160a01b03909316835260208301919091520161015b565b6101b761021f3660046116e5565b610850565b61018c610232366004611892565b61086b565b6101b7610245366004611691565b6108e2565b61025d610258366004611691565b61092f565b60405190815260200161015b565b6101b76109b6565b6102866102813660046118f6565b6109ec565b604080516001600160a01b0390931683526001600160601b0390911660208301520161015b565b6006546001600160a01b031661018c565b61016c610a35565b6101b76102d43660046117fe565b610a44565b6101b76102e7366004611725565b610a53565b61016c6102fa366004611892565b610a85565b61031261030d366004611892565b610b6d565b60405161015b9190611a06565b61014f61032d3660046116ad565b6001600160a01b03918216600090815260056020908152604080832093909416825291909152205460ff1690565b6101b7610369366004611691565b610bfc565b60006001600160e01b03198216631131d2f360e21b141561039157506001919050565b6001600160e01b0319821663152a902d60e11b14156103b257506001919050565b6103bb82610c94565b92915050565b6060600080546103d090611bab565b80601f01602080910402602001604051908101604052809291908181526020018280546103fc90611bab565b80156104495780601f1061041e57610100808354040283529160200191610449565b820191906000526020600020905b81548152906001019060200180831161042c57829003601f168201915b5050505050905090565b6000818152600260205260408120546001600160a01b03166104d15760405162461bcd60e51b815260206004820152602c60248201527f4552433732313a20617070726f76656420717565727920666f72206e6f6e657860448201526b34b9ba32b73a103a37b5b2b760a11b60648201526084015b60405180910390fd5b506000908152600460205260409020546001600160a01b031690565b60006104f88261086b565b9050806001600160a01b0316836001600160a01b031614156105665760405162461bcd60e51b815260206004820152602160248201527f4552433732313a20617070726f76616c20746f2063757272656e74206f776e656044820152603960f91b60648201526084016104c8565b336001600160a01b03821614806105825750610582813361032d565b6105f45760405162461bcd60e51b815260206004820152603860248201527f4552433732313a20617070726f76652063616c6c6572206973206e6f74206f7760448201527f6e6572206e6f7220617070726f76656420666f7220616c6c000000000000000060648201526084016104c8565b6105fe8383610ce4565b505050565b6006546001600160a01b0316331461062d5760405162461bcd60e51b81526004016104c890611a7e565b604080516001808252818301909252600091816020015b6040805180820190915260008082526020820152815260200190600190039081610644579050509050818160008151811061068f57634e487b7160e01b600052603260045260246000fd5b6020026020010151602001906001600160601b031690816001600160601b03168152505082816000815181106106d557634e487b7160e01b600052603260045260246000fd5b60209081029190910101516001600160a01b0390911690526106f78482610d52565b50505050565b6107073382610f00565b6107235760405162461bcd60e51b81526004016104c890611ab3565b6105fe838383610ff7565b6000828152600760209081526040808320805482518185028101850190935280835284938493929190849084015b828210156107ab57600084815260209081902060408051808201909152908401546001600160a01b0381168252600160a01b90046001600160601b03168183015282526001909201910161075c565b50505050905060008151111561084057806000815181106107dc57634e487b7160e01b600052603260045260246000fd5b6020026020010151600001516127108260008151811061080c57634e487b7160e01b600052603260045260246000fd5b6020026020010151602001516001600160601b03168661082c9190611b49565b6108369190611b35565b9250925050610849565b60008092509250505b9250929050565b6105fe83838360405180602001604052806000815250610a53565b6000818152600260205260408120546001600160a01b0316806103bb5760405162461bcd60e51b815260206004820152602960248201527f4552433732313a206f776e657220717565727920666f72206e6f6e657869737460448201526832b73a103a37b5b2b760b91b60648201526084016104c8565b6006546001600160a01b0316331461090c5760405162461bcd60e51b81526004016104c890611a7e565b61091e8161091960085490565b611197565b61092c600880546001019055565b50565b60006001600160a01b03821661099a5760405162461bcd60e51b815260206004820152602a60248201527f4552433732313a2062616c616e636520717565727920666f7220746865207a65604482015269726f206164647265737360b01b60648201526084016104c8565b506001600160a01b031660009081526003602052604090205490565b6006546001600160a01b031633146109e05760405162461bcd60e51b81526004016104c890611a7e565b6109ea60006112d9565b565b60076020528160005260406000208181548110610a0857600080fd5b6000918252602090912001546001600160a01b0381169250600160a01b90046001600160601b0316905082565b6060600180546103d090611bab565b610a4f33838361132b565b5050565b610a5d3383610f00565b610a795760405162461bcd60e51b81526004016104c890611ab3565b6106f7848484846113fa565b6000818152600260205260409020546060906001600160a01b0316610b045760405162461bcd60e51b815260206004820152602f60248201527f4552433732314d657461646174613a2055524920717565727920666f72206e6f60448201526e3732bc34b9ba32b73a103a37b5b2b760891b60648201526084016104c8565b6000610b1b60408051602081019091526000815290565b90506000815111610b3b5760405180602001604052806000815250610b66565b80610b458461142d565b604051602001610b5692919061199a565b6040516020818303038152906040525b9392505050565b606060076000838152602001908152602001600020805480602002602001604051908101604052809291908181526020016000905b82821015610bf157600084815260209081902060408051808201909152908401546001600160a01b0381168252600160a01b90046001600160601b031681830152825260019092019101610ba2565b505050509050919050565b6006546001600160a01b03163314610c265760405162461bcd60e51b81526004016104c890611a7e565b6001600160a01b038116610c8b5760405162461bcd60e51b815260206004820152602660248201527f4f776e61626c653a206e6577206f776e657220697320746865207a65726f206160448201526564647265737360d01b60648201526084016104c8565b61092c816112d9565b60006001600160e01b031982166380ac58cd60e01b1480610cc557506001600160e01b03198216635b5e139f60e01b145b806103bb57506301ffc9a760e01b6001600160e01b03198316146103bb565b600081815260046020526040902080546001600160a01b0319166001600160a01b0384169081179091558190610d198261086b565b6001600160a01b03167f8c5be1e5ebec7d5bd14f71427d1e84f3dd0314c0f7b2291e5b200ac8c7c3b92560405160405180910390a45050565b60005b8151811015610ef55760006001600160a01b0316828281518110610d8957634e487b7160e01b600052603260045260246000fd5b6020026020010151600001516001600160a01b03161415610dec5760405162461bcd60e51b815260206004820152601b60248201527f526563697069656e742073686f756c642062652070726573656e74000000000060448201526064016104c8565b818181518110610e0c57634e487b7160e01b600052603260045260246000fd5b6020026020010151602001516001600160601b031660001415610e715760405162461bcd60e51b815260206004820181905260248201527f526f79616c74792076616c75652073686f756c6420626520706f73697469766560448201526064016104c8565b60008381526007602052604090208251839083908110610ea157634e487b7160e01b600052603260045260246000fd5b6020908102919091018101518254600181018455600093845292829020815191909201516001600160601b0316600160a01b026001600160a01b039091161791015580610eed81611be6565b915050610d55565b50610a4f8282611547565b6000818152600260205260408120546001600160a01b0316610f795760405162461bcd60e51b815260206004820152602c60248201527f4552433732313a206f70657261746f7220717565727920666f72206e6f6e657860448201526b34b9ba32b73a103a37b5b2b760a11b60648201526084016104c8565b6000610f848361086b565b9050806001600160a01b0316846001600160a01b03161480610fbf5750836001600160a01b0316610fb484610453565b6001600160a01b0316145b80610fef57506001600160a01b0380821660009081526005602090815260408083209388168352929052205460ff165b949350505050565b826001600160a01b031661100a8261086b565b6001600160a01b0316146110725760405162461bcd60e51b815260206004820152602960248201527f4552433732313a207472616e73666572206f6620746f6b656e2074686174206960448201526839903737ba1037bbb760b91b60648201526084016104c8565b6001600160a01b0382166110d45760405162461bcd60e51b8152602060048201526024808201527f4552433732313a207472616e7366657220746f20746865207a65726f206164646044820152637265737360e01b60648201526084016104c8565b6110df600082610ce4565b6001600160a01b0383166000908152600360205260408120805460019290611108908490611b68565b90915550506001600160a01b0382166000908152600360205260408120805460019290611136908490611b1d565b909155505060008181526002602052604080822080546001600160a01b0319166001600160a01b0386811691821790925591518493918716917fddf252ad1be2c89b69c2b068fc378daa952ba7f163c4a11628f55a4df523b3ef91a4505050565b6001600160a01b0382166111ed5760405162461bcd60e51b815260206004820181905260248201527f4552433732313a206d696e7420746f20746865207a65726f206164647265737360448201526064016104c8565b6000818152600260205260409020546001600160a01b0316156112525760405162461bcd60e51b815260206004820152601c60248201527f4552433732313a20746f6b656e20616c7265616479206d696e7465640000000060448201526064016104c8565b6001600160a01b038216600090815260036020526040812080546001929061127b908490611b1d565b909155505060008181526002602052604080822080546001600160a01b0319166001600160a01b03861690811790915590518392907fddf252ad1be2c89b69c2b068fc378daa952ba7f163c4a11628f55a4df523b3ef908290a45050565b600680546001600160a01b038381166001600160a01b0319831681179093556040519116919082907f8be0079c531659141344cd1fd0a4f28419497f9722a3daafe3b4186f6b6457e090600090a35050565b816001600160a01b0316836001600160a01b0316141561138d5760405162461bcd60e51b815260206004820152601960248201527f4552433732313a20617070726f766520746f2063616c6c65720000000000000060448201526064016104c8565b6001600160a01b03838116600081815260056020908152604080832094871680845294825291829020805460ff191686151590811790915591519182527f17307eab39ab6107e8899845ad3d59bd9653f200f220920489ca2b5937696c31910160405180910390a3505050565b611405848484610ff7565b61141184848484611584565b6106f75760405162461bcd60e51b81526004016104c890611a2c565b6060816114515750506040805180820190915260018152600360fc1b602082015290565b8160005b811561147b578061146581611be6565b91506114749050600a83611b35565b9150611455565b60008167ffffffffffffffff8111156114a457634e487b7160e01b600052604160045260246000fd5b6040519080825280601f01601f1916602001820160405280156114ce576020820181803683370190505b5090505b8415610fef576114e3600183611b68565b91506114f0600a86611c01565b6114fb906030611b1d565b60f81b81838151811061151e57634e487b7160e01b600052603260045260246000fd5b60200101906001600160f81b031916908160001a905350611540600a86611b35565b94506114d2565b7f3fa96d7b6bcbfe71ef171666d84db3cf52fa2d1c8afdb1cc8e486177f208b7df8282604051611578929190611b04565b60405180910390a15050565b60006001600160a01b0384163b1561168657604051630a85bd0160e11b81526001600160a01b0385169063150b7a02906115c89033908990889088906004016119c9565b602060405180830381600087803b1580156115e257600080fd5b505af1925050508015611612575060408051601f3d908101601f1916820190925261160f91810190611876565b60015b61166c573d808015611640576040519150601f19603f3d011682016040523d82523d6000602084013e611645565b606091505b5080516116645760405162461bcd60e51b81526004016104c890611a2c565b805181602001fd5b6001600160e01b031916630a85bd0160e11b149050610fef565b506001949350505050565b6000602082840312156116a2578081fd5b8135610b6681611c57565b600080604083850312156116bf578081fd5b82356116ca81611c57565b915060208301356116da81611c57565b809150509250929050565b6000806000606084860312156116f9578081fd5b833561170481611c57565b9250602084013561171481611c57565b929592945050506040919091013590565b6000806000806080858703121561173a578081fd5b843561174581611c57565b9350602085013561175581611c57565b925060408501359150606085013567ffffffffffffffff80821115611778578283fd5b818701915087601f83011261178b578283fd5b81358181111561179d5761179d611c41565b604051601f8201601f19908116603f011681019083821181831017156117c5576117c5611c41565b816040528281528a60208487010111156117dd578586fd5b82602086016020830137918201602001949094529598949750929550505050565b60008060408385031215611810578182fd5b823561181b81611c57565b9150602083013580151581146116da578182fd5b60008060408385031215611841578182fd5b823561184c81611c57565b946020939093013593505050565b60006020828403121561186b578081fd5b8135610b6681611c6c565b600060208284031215611887578081fd5b8151610b6681611c6c565b6000602082840312156118a3578081fd5b5035919050565b6000806000606084860312156118be578283fd5b8335925060208401356118d081611c57565b915060408401356001600160601b03811681146118eb578182fd5b809150509250925092565b60008060408385031215611908578182fd5b50508035926020909101359150565b6000815180845260208085019450808401835b8381101561196357815180516001600160a01b031688528301516001600160601b0316838801526040909601959082019060010161192a565b509495945050505050565b60008151808452611986816020860160208601611b7f565b601f01601f19169290920160200192915050565b600083516119ac818460208801611b7f565b8351908301906119c0818360208801611b7f565b01949350505050565b6001600160a01b03858116825284166020820152604081018390526080606082018190526000906119fc9083018461196e565b9695505050505050565b602081526000610b666020830184611917565b602081526000610b66602083018461196e565b60208082526032908201527f4552433732313a207472616e7366657220746f206e6f6e20455243373231526560408201527131b2b4bb32b91034b6b83632b6b2b73a32b960711b606082015260800190565b6020808252818101527f4f776e61626c653a2063616c6c6572206973206e6f7420746865206f776e6572604082015260600190565b60208082526031908201527f4552433732313a207472616e736665722063616c6c6572206973206e6f74206f6040820152701ddb995c881b9bdc88185c1c1c9bdd9959607a1b606082015260800190565b828152604060208201526000610fef6040830184611917565b60008219821115611b3057611b30611c15565b500190565b600082611b4457611b44611c2b565b500490565b6000816000190483118215151615611b6357611b63611c15565b500290565b600082821015611b7a57611b7a611c15565b500390565b60005b83811015611b9a578181015183820152602001611b82565b838111156106f75750506000910152565b600181811c90821680611bbf57607f821691505b60208210811415611be057634e487b7160e01b600052602260045260246000fd5b50919050565b6000600019821415611bfa57611bfa611c15565b5060010190565b600082611c1057611c10611c2b565b500690565b634e487b7160e01b600052601160045260246000fd5b634e487b7160e01b600052601260045260246000fd5b634e487b7160e01b600052604160045260246000fd5b6001600160a01b038116811461092c57600080fd5b6001600160e01b03198116811461092c57600080fdfea264697066735822122058aa4d9217856508b62387a4549b33346ed0d462ebe8cfe8bce008da287ad10064736f6c63430008040033",
  "immutableReferences": {},
  "source": "//SPDX-License-Identifier: MIT\npragma solidity ^0.8.0;\n\nimport \"@openzeppelin/contracts/token/ERC721/ERC721.sol\";\nimport \"@openzeppelin/contracts/access/Ownable.sol\";\nimport \"@openzeppelin/contracts/utils/Counters.sol\";\nimport \"./@rarible/royalties/contracts/impl/RoyaltiesV2Impl.sol\";\nimport \"./@rarible/royalties/contracts/LibPart.sol\";\nimport \"./@rarible/royalties/contracts/LibRoyaltiesV2.sol\";\n\ncontract MinimalERC721 is ERC721, Ownable, RoyaltiesV2Impl {\n    using Counters for Counters.Counter;\n    Counters.Counter private _tokenIdTracker;\n\n    bytes4 private constant _INTERFACE_ID_ERC2981 = 0x2a55205a;\n\n    constructor() ERC721(\"Minimal\", \"MIN\") {}\n\n    function mint(address _to) public onlyOwner {\n        super._mint(_to, _tokenIdTracker.current());\n        _tokenIdTracker.increment();        \n    }\n\n    function setRoyalties(uint _tokenId, address payable _royaltiesReceipientAddress, uint96 _percentageBasisPoints) public onlyOwner {\n        LibPart.Part[] memory _royalties = new LibPart.Part[](1);\n        _royalties[0].value = _percentageBasisPoints;\n        _royalties[0].account = _royaltiesReceipientAddress;\n        _saveRoyalties(_tokenId, _royalties);\n    }\n\n    function royaltyInfo(uint256 _tokenId, uint256 _salePrice) external view returns (address receiver, uint256 royaltyAmount) {\n\n        LibPart.Part[] memory _royalties = royalties[_tokenId];\n\n        if(_royalties.length > 0) {\n            return (_royalties[0].account, (_salePrice * _royalties[0].value)/10000);\n        }\n\n        return (address(0), 0);\n    }\n\n    function supportsInterface(bytes4 interfaceId) public view virtual override(ERC721) returns (bool) {\n        if(interfaceId == LibRoyaltiesV2._INTERFACE_ID_ROYALTIES) {\n            return true;\n        }\n        if(interfaceId == _INTERFACE_ID_ERC2981) {\n            return true;\n        }\n        return super.supportsInterface(interfaceId);\n    } \n\n}\n",
  "sourcePath": "/workspace/NFTRoyalty/contracts/MinimalERC721.sol",
  "compiler": {
    "name": "solc",
    "version": "0.8.4+commit.c7e474f2.Emscripten.clang"
  },
  "schemaVersion": "3.4.4",
  "updatedAt": "2022-01-23T10:31:05.405Z",
  "networkType": "ethereum",
  "devdoc": {
    "kind": "dev",
    "methods": {
      "approve(address,uint256)": {
        "details": "See {IERC721-approve}."
      },
      "balanceOf(address)": {
        "details": "See {IERC721-balanceOf}."
      },
      "getApproved(uint256)": {
        "details": "See {IERC721-getApproved}."
      },
      "isApprovedForAll(address,address)": {
        "details": "See {IERC721-isApprovedForAll}."
      },
      "name()": {
        "details": "See {IERC721Metadata-name}."
      },
      "owner()": {
        "details": "Returns the address of the current owner."
      },
      "ownerOf(uint256)": {
        "details": "See {IERC721-ownerOf}."
      },
      "renounceOwnership()": {
        "details": "Leaves the contract without owner. It will not be possible to call `onlyOwner` functions anymore. Can only be called by the current owner. NOTE: Renouncing ownership will leave the contract without an owner, thereby removing any functionality that is only available to the owner."
      },
      "safeTransferFrom(address,address,uint256)": {
        "details": "See {IERC721-safeTransferFrom}."
      },
      "safeTransferFrom(address,address,uint256,bytes)": {
        "details": "See {IERC721-safeTransferFrom}."
      },
      "setApprovalForAll(address,bool)": {
        "details": "See {IERC721-setApprovalForAll}."
      },
      "supportsInterface(bytes4)": {
        "details": "See {IERC165-supportsInterface}."
      },
      "symbol()": {
        "details": "See {IERC721Metadata-symbol}."
      },
      "tokenURI(uint256)": {
        "details": "See {IERC721Metadata-tokenURI}."
      },
      "transferFrom(address,address,uint256)": {
        "details": "See {IERC721-transferFrom}."
      },
      "transferOwnership(address)": {
        "details": "Transfers ownership of the contract to a new account (`newOwner`). Can only be called by the current owner."
      }
    },
    "version": 1
  },
  "userdoc": {
    "kind": "user",
    "methods": {},
    "version": 1
  }
}